{
  "contractName": "SmartContract",
  "abi": [
    {
      "inputs": [],
      "name": "certificateCount",
      "outputs": [
        {
          "internalType": "uint256",
          "name": "",
          "type": "uint256"
        }
      ],
      "stateMutability": "view",
      "type": "function",
      "constant": true
    },
    {
      "inputs": [
        {
          "internalType": "string",
          "name": "",
          "type": "string"
        }
      ],
      "name": "certificateList",
      "outputs": [
        {
          "internalType": "string",
          "name": "username",
          "type": "string"
        },
        {
          "internalType": "string",
          "name": "rollNumber",
          "type": "string"
        },
        {
          "internalType": "string",
          "name": "course",
          "type": "string"
        },
        {
          "internalType": "string",
          "name": "college",
          "type": "string"
        },
        {
          "internalType": "string",
          "name": "date",
          "type": "string"
        },
        {
          "internalType": "string",
          "name": "specialization",
          "type": "string"
        },
        {
          "internalType": "string",
          "name": "issuedBy",
          "type": "string"
        }
      ],
      "stateMutability": "view",
      "type": "function",
      "constant": true
    },
    {
      "inputs": [],
      "name": "userCount",
      "outputs": [
        {
          "internalType": "uint256",
          "name": "",
          "type": "uint256"
        }
      ],
      "stateMutability": "view",
      "type": "function",
      "constant": true
    },
    {
      "inputs": [
        {
          "internalType": "string",
          "name": "",
          "type": "string"
        }
      ],
      "name": "usersList",
      "outputs": [
        {
          "internalType": "string",
          "name": "username",
          "type": "string"
        },
        {
          "internalType": "string",
          "name": "email",
          "type": "string"
        },
        {
          "internalType": "string",
          "name": "password",
          "type": "string"
        }
      ],
      "stateMutability": "view",
      "type": "function",
      "constant": true
    },
    {
      "inputs": [
        {
          "internalType": "string",
          "name": "_username",
          "type": "string"
        },
        {
          "internalType": "string",
          "name": "_email",
          "type": "string"
        },
        {
          "internalType": "string",
          "name": "_password",
          "type": "string"
        }
      ],
      "name": "createUser",
      "outputs": [],
      "stateMutability": "nonpayable",
      "type": "function"
    },
    {
      "inputs": [
        {
          "internalType": "string",
          "name": "_username",
          "type": "string"
        },
        {
          "internalType": "string",
          "name": "_rollNumber",
          "type": "string"
        },
        {
          "internalType": "string",
          "name": "_course",
          "type": "string"
        },
        {
          "internalType": "string",
          "name": "_college",
          "type": "string"
        },
        {
          "internalType": "string",
          "name": "_date",
          "type": "string"
        },
        {
          "internalType": "string",
          "name": "_specialization",
          "type": "string"
        },
        {
          "internalType": "string",
          "name": "_issuedBy",
          "type": "string"
        }
      ],
      "name": "createCertificate",
      "outputs": [],
      "stateMutability": "nonpayable",
      "type": "function"
    }
  ],
  "bytecode": "0x608060405260008055600060015534801561001957600080fd5b50611216806100296000396000f3fe608060405234801561001057600080fd5b50600436106100625760003560e01c806307973ccf146100675780634cbce6ac1461008557806352d7b89c146100b757806359ae069b146100d5578063d927680f146100f1578063fae76d8c1461010d575b600080fd5b61006f610143565b60405161007c91906108f9565b60405180910390f35b61009f600480360381019061009a9190610a6e565b610149565b6040516100ae93929190610b3f565b60405180910390f35b6100bf610321565b6040516100cc91906108f9565b60405180910390f35b6100ef60048036038101906100ea9190610b8b565b610327565b005b61010b60048036038101906101069190610c32565b6103c1565b005b61012760048036038101906101229190610a6e565b6104d0565b60405161013a9796959493929190610d98565b60405180910390f35b60005481565b60028180516020810182018051848252602083016020850120818352809550505050505060009150905080600001805461018290610e67565b80601f01602080910402602001604051908101604052809291908181526020018280546101ae90610e67565b80156101fb5780601f106101d0576101008083540402835291602001916101fb565b820191906000526020600020905b8154815290600101906020018083116101de57829003601f168201915b50505050509080600101805461021090610e67565b80601f016020809104026020016040519081016040528092919081815260200182805461023c90610e67565b80156102895780601f1061025e57610100808354040283529160200191610289565b820191906000526020600020905b81548152906001019060200180831161026c57829003601f168201915b50505050509080600201805461029e90610e67565b80601f01602080910402602001604051908101604052809291908181526020018280546102ca90610e67565b80156103175780601f106102ec57610100808354040283529160200191610317565b820191906000526020600020905b8154815290600101906020018083116102fa57829003601f168201915b5050505050905083565b60015481565b60008081548092919061033990610ec7565b91905055506040518060600160405280848152602001838152602001828152506002836040516103699190610f4b565b9081526020016040518091039020600082015181600001908161038c919061110e565b5060208201518160010190816103a2919061110e565b5060408201518160020190816103b8919061110e565b50905050505050565b600160008154809291906103d490610ec7565b91905055506040518060e001604052808881526020018781526020018681526020018581526020018481526020018381526020018281525060038760405161041c9190610f4b565b9081526020016040518091039020600082015181600001908161043f919061110e565b506020820151816001019081610455919061110e565b50604082015181600201908161046b919061110e565b506060820151816003019081610481919061110e565b506080820151816004019081610497919061110e565b5060a08201518160050190816104ad919061110e565b5060c08201518160060190816104c3919061110e565b5090505050505050505050565b60038180516020810182018051848252602083016020850120818352809550505050505060009150905080600001805461050990610e67565b80601f016020809104026020016040519081016040528092919081815260200182805461053590610e67565b80156105825780601f1061055757610100808354040283529160200191610582565b820191906000526020600020905b81548152906001019060200180831161056557829003601f168201915b50505050509080600101805461059790610e67565b80601f01602080910402602001604051908101604052809291908181526020018280546105c390610e67565b80156106105780601f106105e557610100808354040283529160200191610610565b820191906000526020600020905b8154815290600101906020018083116105f357829003601f168201915b50505050509080600201805461062590610e67565b80601f016020809104026020016040519081016040528092919081815260200182805461065190610e67565b801561069e5780601f106106735761010080835404028352916020019161069e565b820191906000526020600020905b81548152906001019060200180831161068157829003601f168201915b5050505050908060030180546106b390610e67565b80601f01602080910402602001604051908101604052809291908181526020018280546106df90610e67565b801561072c5780601f106107015761010080835404028352916020019161072c565b820191906000526020600020905b81548152906001019060200180831161070f57829003601f168201915b50505050509080600401805461074190610e67565b80601f016020809104026020016040519081016040528092919081815260200182805461076d90610e67565b80156107ba5780601f1061078f576101008083540402835291602001916107ba565b820191906000526020600020905b81548152906001019060200180831161079d57829003601f168201915b5050505050908060050180546107cf90610e67565b80601f01602080910402602001604051908101604052809291908181526020018280546107fb90610e67565b80156108485780601f1061081d57610100808354040283529160200191610848565b820191906000526020600020905b81548152906001019060200180831161082b57829003601f168201915b50505050509080600601805461085d90610e67565b80601f016020809104026020016040519081016040528092919081815260200182805461088990610e67565b80156108d65780601f106108ab576101008083540402835291602001916108d6565b820191906000526020600020905b8154815290600101906020018083116108b957829003601f168201915b5050505050905087565b6000819050919050565b6108f3816108e0565b82525050565b600060208201905061090e60008301846108ea565b92915050565b6000604051905090565b600080fd5b600080fd5b600080fd5b600080fd5b6000601f19601f8301169050919050565b7f4e487b7100000000000000000000000000000000000000000000000000000000600052604160045260246000fd5b61097b82610932565b810181811067ffffffffffffffff8211171561099a57610999610943565b5b80604052505050565b60006109ad610914565b90506109b98282610972565b919050565b600067ffffffffffffffff8211156109d9576109d8610943565b5b6109e282610932565b9050602081019050919050565b82818337600083830152505050565b6000610a11610a0c846109be565b6109a3565b905082815260208101848484011115610a2d57610a2c61092d565b5b610a388482856109ef565b509392505050565b600082601f830112610a5557610a54610928565b5b8135610a658482602086016109fe565b91505092915050565b600060208284031215610a8457610a8361091e565b5b600082013567ffffffffffffffff811115610aa257610aa1610923565b5b610aae84828501610a40565b91505092915050565b600081519050919050565b600082825260208201905092915050565b60005b83811015610af1578082015181840152602081019050610ad6565b83811115610b00576000848401525b50505050565b6000610b1182610ab7565b610b1b8185610ac2565b9350610b2b818560208601610ad3565b610b3481610932565b840191505092915050565b60006060820190508181036000830152610b598186610b06565b90508181036020830152610b6d8185610b06565b90508181036040830152610b818184610b06565b9050949350505050565b600080600060608486031215610ba457610ba361091e565b5b600084013567ffffffffffffffff811115610bc257610bc1610923565b5b610bce86828701610a40565b935050602084013567ffffffffffffffff811115610bef57610bee610923565b5b610bfb86828701610a40565b925050604084013567ffffffffffffffff811115610c1c57610c1b610923565b5b610c2886828701610a40565b9150509250925092565b600080600080600080600060e0888a031215610c5157610c5061091e565b5b600088013567ffffffffffffffff811115610c6f57610c6e610923565b5b610c7b8a828b01610a40565b975050602088013567ffffffffffffffff811115610c9c57610c9b610923565b5b610ca88a828b01610a40565b965050604088013567ffffffffffffffff811115610cc957610cc8610923565b5b610cd58a828b01610a40565b955050606088013567ffffffffffffffff811115610cf657610cf5610923565b5b610d028a828b01610a40565b945050608088013567ffffffffffffffff811115610d2357610d22610923565b5b610d2f8a828b01610a40565b93505060a088013567ffffffffffffffff811115610d5057610d4f610923565b5b610d5c8a828b01610a40565b92505060c088013567ffffffffffffffff811115610d7d57610d7c610923565b5b610d898a828b01610a40565b91505092959891949750929550565b600060e0820190508181036000830152610db2818a610b06565b90508181036020830152610dc68189610b06565b90508181036040830152610dda8188610b06565b90508181036060830152610dee8187610b06565b90508181036080830152610e028186610b06565b905081810360a0830152610e168185610b06565b905081810360c0830152610e2a8184610b06565b905098975050505050505050565b7f4e487b7100000000000000000000000000000000000000000000000000000000600052602260045260246000fd5b60006002820490506001821680610e7f57607f821691505b602082108103610e9257610e91610e38565b5b50919050565b7f4e487b7100000000000000000000000000000000000000000000000000000000600052601160045260246000fd5b6000610ed2826108e0565b91507fffffffffffffffffffffffffffffffffffffffffffffffffffffffffffffffff8203610f0457610f03610e98565b5b600182019050919050565b600081905092915050565b6000610f2582610ab7565b610f2f8185610f0f565b9350610f3f818560208601610ad3565b80840191505092915050565b6000610f578284610f1a565b915081905092915050565b60008190508160005260206000209050919050565b60006020601f8301049050919050565b600082821b905092915050565b600060088302610fc47fffffffffffffffffffffffffffffffffffffffffffffffffffffffffffffffff82610f87565b610fce8683610f87565b95508019841693508086168417925050509392505050565b6000819050919050565b600061100b611006611001846108e0565b610fe6565b6108e0565b9050919050565b6000819050919050565b61102583610ff0565b61103961103182611012565b848454610f94565b825550505050565b600090565b61104e611041565b61105981848461101c565b505050565b5b8181101561107d57611072600082611046565b60018101905061105f565b5050565b601f8211156110c25761109381610f62565b61109c84610f77565b810160208510156110ab578190505b6110bf6110b785610f77565b83018261105e565b50505b505050565b600082821c905092915050565b60006110e5600019846008026110c7565b1980831691505092915050565b60006110fe83836110d4565b9150826002028217905092915050565b61111782610ab7565b67ffffffffffffffff8111156111305761112f610943565b5b61113a8254610e67565b611145828285611081565b600060209050601f8311600181146111785760008415611166578287015190505b61117085826110f2565b8655506111d8565b601f19841661118686610f62565b60005b828110156111ae57848901518255600182019150602085019450602081019050611189565b868310156111cb57848901516111c7601f8916826110d4565b8355505b6001600288020188555050505b50505050505056fea2646970667358221220dbaf1109c091530c192e7ec55b1aac33145f43fdc76afe17f4edba5c49c7884a64736f6c634300080f0033",
  "immutableReferences": {},
  "source": "// SPDX-License-Identifier: MIT\r\npragma solidity >=0.4.22 <0.9.0;\r\n\r\ncontract SmartContract{\r\n    \r\n    uint public userCount=0;\r\n    uint public certificateCount=0;\r\n\r\n    mapping(string => user) public usersList;\r\n    mapping(string => certificate) public certificateList;\r\n\r\n     struct user{\r\n      string username;\r\n      string email;\r\n      string password;\r\n  }\r\n\r\n    struct certificate{\r\n      string username;\r\n      string rollNumber;\r\n      string course;\r\n      string college;\r\n      string date;\r\n      string specialization;\r\n      string issuedBy;\r\n  }\r\n\r\n  function createUser(string memory _username,string memory _email,string memory _password ) public {\r\n        userCount++;\r\n        usersList[_email] = user(_username,_email,_password);\r\n    }\r\n\r\n  function createCertificate(string memory _username,string memory _rollNumber,string memory _course ,string memory _college , string memory _date ,string  memory _specialization,string memory _issuedBy ) public {\r\n        certificateCount++;\r\n        certificateList[_rollNumber] = certificate(_username,_rollNumber,_course,_college,_date,_specialization,_issuedBy);\r\n    }\r\n\r\n     \r\n}",
  "sourcePath": "C:\\Users\\jashwanth\\Desktop\\blockchain-projects\\user-portal-blockchain\\src\\contracts\\SmartContract.sol",
  "compiler": {
    "name": "solc",
    "version": "0.8.15+commit.e14f2714.Emscripten.clang"
  },
  "schemaVersion": "3.4.8",
  "updatedAt": "2023-09-17T14:08:27.264Z",
  "networkType": "ethereum",
  "devdoc": {
    "kind": "dev",
    "methods": {},
    "version": 1
  },
  "userdoc": {
    "kind": "user",
    "methods": {},
    "version": 1
  }
}